:0C0000000C949D000C9400000C94000077
:10000C000C9400000C9400000C9400000C94000064
:10001C000C9400000C9400000C94CA000C9400008A
:10002C000C94EE000C9400000C9400000C94000056
:10003C000C9400000C9400000C9400000C94000034
:10004C000C9400000C9400001027E80364000A00D4
:10005C000100001000011000010000000000000071
:10006C00000000000000212043414E482042414F37
:10007C0020414D202120002048452054484F4E4718
:10008C002054415420202000543A256425634320F9
:10009C00483A25642525205B25635D2000504D3AA8
:1000AC0025642020494F4E3A4F4E2000504D3A25A2
:1000BC00642020494F4E3A4F4646003E204341496A
:1000CC002044415420425549203C20004E67756F16
:1000DC006E673A2025642075672F6D33003E2043F0
:1000EC00414920444F20414D20203C2020004E67A8
:1000FC00756F6E673A20256420252520202000008E
:10010C0080C00100020066000A00040068001100B3
:10011C006001720011007101830011008201C7009F
:10012C0011009301E9000200BD010C010000F894DC
:10013C00EE27ECBBF1E0FBBFEBBFE5BF8DE0A2E02F
:10014C00BB27ED938A95E9F780E094E0A0E6ED9368
:10015C000197E9F7EEE0F1E085919591009761F058
:10016C00A591B59105901590BF01F00105900D92E8
:10017C000197E1F7FB01F0CFEFE5EDBFE4E0EEBF57
:10018C00C0E6D1E00C94C602EA93FA93EFB7EA9377
:10019C00E3E8E2BFF50131965F01EAE0F0E0AE166C
:1001AC00BF0620F0AA24BB24E1E08E2EF601319686
:1001BC006F01E0EDF7E0CE16DF0628F0CC24DD244D
:1001CC00E1E0E093B401E991EFBFF991E991189561
:1001DC00AA93BA93EA93FA93EFB7EA931A930A9312
:1001EC001BB10CB1E12FEC7171F5A091BC01A030E9
:1001FC0011F40E3F09F401C026C0A091BC01A1303E
:10020C0011F4053A09F404C0E0E0E093BC011BC012
:10021C00E091BC01F0E0EB54FE4F0083E091BC0197
:10022C00EF5FE093BC01A091BC01A73060F0B091EE
:10023C00B901A0E0E091BA01F0E0EA2BFB2B3F0101
:10024C00E0E0E093BC0109911991E991EFBFF991BC
:10025C00E991B991A99118958F9A97980E947C056C
:10026C008F98979A08951A930A9300E010E08BE602
:10027C008A95F1F7879912C000E010E0879904C0C5
:10028C000E94800558F4FACF00E010E0879B04C070
:10029C000E94800518F4FACFE1E001C0E0E009917A
:1002AC00199108950E94DA0500E010E01830D8F496
:1002BC0020E030E0879903C00E948705D8F380E5E1
:1002CC008A95F1F7879B0CC0E02FEE0FE1600E2FA3
:1002DC0020E030E0879B03C00E948705D8F301C063
:1002EC00000F1F5FE3CFE02F0E94E10524960895D5
:1002FC00F894B2DFB8DFE13039F4D4DF5E2ED2DF10
:10030C00D1DF4E2ECFDFCEDF78940895E0E0E0937E
:10031C00BC015D9BFECFEEEFECB95D9BFECFE5EA39
:10032C00ECB95D9BFECFE0E0ECB95D9BFECFE0E06D
:10033C00ECB95D9BFECFE5EAECB9089598990CC039
:10034C000E947C05989908C0989BFECF9394E2E09C
:10035C00E91508F499248CD19B990AC00E947C055C
:10036C009B9906C09B9BFECF992011F4E1E02E26B1
:10037C00999927C00E947C05999923C0E1E0E91561
:10038C0041F40E948E053596A0E0B0E00E940B0669
:10039C0014C0E2E0E91551F40E949305E43628F408
:1003AC000E949305EF5F0E94130607C0992011F479
:1003BC0020FC01C002C0689421F8A6E9B0E00E94BC
:1003CC0024069A9934C00E947C059A9930C0E1E0C9
:1003DC00E91589F40E948E05359730F00E948E0540
:1003EC003597A0E0B0E004C0A0E0B0E0E5E0F0E0BC
:1003FC000E940B0618C0E2E0E91571F40E94930507
:10040C00E13020F00E949305E15003C0A2E0B0E07F
:10041C00E0E00E94130607C0992011F420FC01C0F3
:10042C0002C0E89421F8A6E9B0E00E9424060895E1
:10043C000E9493055E1618F0E4E6E51508F404C076
:10044C00D898E89421F816C020FC0FC00E948E05A5
:10045C006E167F0610F0D89A07C00E948E0535974D
:10046C006E167F0608F4D89805C021FC02C0D898F7
:10047C0001C0D89A0895992009F050C00E949305A4
:10048C005E1618F0E4E6E51508F40AC00E9498051B
:10049C00A0E6B1E01BD10E949D05A1E7B1E03CC0F4
:1004AC000E94A205E4E9F0E0FA93EA93E42D0E949D
:1004BC00A705EFEDF0E060E070E00E94F605E52D99
:1004CC000E94A70520FC02C0E1E401C0EDE40E94FB
:1004DC00A70580E10E94270564960E949805A4EA6E
:1004EC00B1E0F4D0D89B05C00E94A205E9EAF0E087
:1004FC0004C00E94A205E8EBF0E0FA93EA93F30142
:10050C00662777270E94F60584E00E942705289627
:10051C000E949D05A4EAB1E0D9D031C0E1E0E91513
:10052C0081F40E949805A2E8B1E0D0D00E94A20507
:10053C00E8EDF0E0FA93EA930E948E0566277727A0
:10054C0013C0E2E0E915D9F40E949805A3E9B1E0E3
:10055C00BDD00E94A205EAEFF0E0FA93EA930E9464
:10056C009305FF27662777270E94F60584E00E94F3
:10057C00270528960E949D05A4EAB1E0A7D008950E
:10058C00E1E0EABBE0E0EBBBEFEFE7BBE0E0E8BBB0
:10059C00E4BBEFE0E5BBE2E0E1BBE0E1E2BBE3E0C2
:1005AC00E3BFE3E8E2BFE0E0ECBFE1E0E9BFE0E09D
:1005BC00EBB9E8E9EAB9E6E8E0BDE1E0E0BDE0EA84
:1005CC00E9B9A0E194D054D07894882021F0882403
:1005DC00B5DE2EDF50DFE091B401E03029F0E0E031
:1005EC00E093B40185DE92DEF0CFFFCFAA93E881D1
:1005FC00E07111F0939A01C09398E881E07211F0C8
:10060C00949A01C09498E881E07411F0959A01C015
:10061C009598E881E07811F0969A01C096988DE053
:10062C008A95F1F7C29A8DE08A95F1F7C2988DE020
:10063C008A95F1F788C0AA93A881D8DFE881E29562
:10064C00E883A881D3DF85E88A95F1F77CC0AA936B
:10065C00E881F0E0E354FE4FE081A981AE0FEBDFBF
:10066C00E981E093C101E881E093C20122960895EB
:10067C00A2E00E94AD05ACE0DEDFA1E00E94AD057A
:10068C00E0E0E093C201E093C1010895AA93A88130
:10069C00AA3031F0E091C301A091C101AE1760F016
:1006AC00E0E0EA93A091C201AF5FA093C201CFDF5B
:1006BC00A881AA3009F447C0E091C101EF5FE09333
:1006CC00C101C09AA881B7DFC0983DC0BA93AA9364
:1006DC001A93A981BA81ED91A983BA831E2FE030B8
:1006EC0019F0A12FD3DFF5CF188123960895AA9383
:1006FC008B9A8C9A8D9A8E9ABA9AB89AB99AC29801
:10070C00C098C198E881E093C301E058E093BF0121
:10071C00E881E054E093C0010E947C050E94B3057F
:10072C000E94B3050E94B305A0E260DF88EC90E064
:10073C000197F1F7A8E27FDFA4E07DDFA5E87BDF7E
:10074C00A6E079DF95DF21960895BA93AA931A93C0
:10075C000A93AA81BB8112960E94EE05309759F13B
:10076C00AA81BB8114960E94EE058F01309761F02F
:10077C000230E0E01E0798F0F80131978F01AA8152
:10078C00BB811496ED93FC93AA81BB811296ED91DB
:10079C00FD913196FE93EE933197AC81A083AA81A3
:1007AC00BB810E94EE05FF232AF0ED91FD9131965D
:1007BC00FE93EE9306C0AA81BB81EFEFFFEFED93A2
:1007CC00FC931981088125960895BA93AA932697CC
:1007DC000E94D80510E0AC85BD85E0E0F0E0ED931B
:1007EC00FC93EA89FB893196EA8BFB8B3197E49178
:1007FC002E2FE03009F41DC1E12FE03039F4253201
:10080C0011F411E002C00E94BB0512C1E130A9F441
:10081C00253219F40E94BB050AC112E040E000E049
:10082C002D3211F401E004C12B3211F44BE200C162
:10083C00203211F440E2FCC002C0E23039F450E046
:10084C0013E0203311F40068F3C003C0E33009F067
:10085C00EFC0203310F02A3308F007C0AAE05A9FEB
:10086C00502DE22FE0535E0FE3C0E22FE33649F444
:10087C000E94C205E889F989A481AA930E94C8053F
:10088C00D6C0E33741F40E94C2050E94CE050E94F7
:10089C0063051E2F0AC0E03761F40E94C2050E9456
:1008AC00CE050E946F051E2F086002600F7730E0A6
:1008BC003CC0E43611F0E93611F4046002C0E537AF
:1008CC0031F4E4E5F0E0EE83FF8315E00CC0E8358D
:1008DC0011F4086003C0E83709F0A9C0EEE5F0E0B8
:1008EC00EE83FF8314E002FF17C00E94C205A889A3
:1008FC00B9891496ED91FD91EA87FB87AB85AA2304
:10090C002AF40E94EA05EA87FB874DE2403011F099
:10091C001F5F01C00B7F09C00E94C205A889B9895D
:10092C0014960E94EE05EA87FB8700FD11C015178F
:10093C0078F407FF08C002FF04C00B7F242F11506E
:10094C0001C020E301C020E20E94BB055150EFCF53
:10095C00312F01FF17C03030A1F003FF06C0EE812C
:10096C00FF812591EE83FF8305C0AE81BF812D9160
:10097C00AE83BF830E94BB05503009F051503150FB
:10098C00EACF4BC020E3EE81FF810E94F205E8879D
:10099C00F987EE81FF813296EE83FF83E885F98536
:1009AC00AA85BB85AE17BF0750F02F5FA885B98508
:1009BC00EA85FB85EA1BFB0BEA87FB87EFCF2A3323
:1009CC0028F003FF02C0295F01C0295D04FD1AC095
:1009DC00213320F4A885B985119709F409C0531760
:1009EC0010F000FF01C013C020E207FF0BC020E392
:1009FC00006102FF07C00B7F4A930E94C80550306C
:100A0C0009F051500E94BB05503009F05150315043
:100A1C00A885B985129708F0B5CF00FF08C05030F3
:100A2C0031F05150E0E2EA930E94C805F8CF10E093
:100A3C00D8CEAC85BD85ED91FD910E94DF05649605
:100A4C000895FF92F82E26970E94DA05DE011C9677
:100A5C000E94E6050E94EE05309719F4EFEFFFEFC8
:100A6C0027C0DE0116960E94E6058D01DE011C965C
:100A7C000E94E605ED91FD91EE83FF83E0E0E887AF
:100A8C00E987DE011A960E94E605ED91FD91FA9335
:100A9C00EA931A930A93EBEAF3E0FA93EA93DE01F2
:100AAC001A9693DE9F01AE81BF81E0E0EC93F901D1
:100ABC000E94E1052A96FF900895BA93AA93A991F2
:100ACC00B991EE27FF276D91662311F03196FBCF7C
:100ADC000895BA93AA93AA27BB27E991F991059097
:100AEC00002011F01196FBCFFD010895A4E1B0E0B8
:100AFC000C942406F80131968F01E93EA3E0FA0725
:100B0C000895F90131969F01E93EA3E0FA07089593
:100B1C00A0E0B0E00E94FB050895A2E0B0E00E94C6
:100B2C00FF050895E0E0EA93A0E00C942D03E0E0CB
:100B3C00EA93A1E00C942D03E4EAF1E0FA93EA9332
:100B4C000895FF27662777270E94F60508950E94CF
:100B5C002103A3E0B0E00C942406A0E30E94FC0265
:100B6C0088EC90E00197F1F708952A93AD85BE8546
:100B7C00EF85F88909950895E889F9893497E88B08
:100B8C00F98B0895AD85BE85EF85F8890995089593
:100B9C00A889B9891496ED91FD91EE83FF83AE81FE
:100BAC00BF8108955A934A933A932A931A930A93BE
:100BBC0008955D814C813B812A81198108810895BA
:100BCC000024AF0DB01D0895F195E195F040089506
:100BDC00ED91FC91119708950590F491E02D0895F5
:100BEC007A936A93FA93EA930895119602D0FE2FA2
:100BFC001197E199FECFFF93FFB7F894AEBBBFBB43
:100C0C00E09AEDB3FFBFFF91089507D01196EF93D3
:100C1C00EF2F03D0EF9111970895E19B02C0A89597
:100C2C00FCCF9FB7F894AEBBBFBBE09A8DB3E8176F
:100C3C0019F0EDBBE29AE19A9FBF0895109639F036
:100C4C00A89580ED97E00197F1F71197C9F70895F2
:00000001FF
